{
  "contractName": "Cafe",
  "abi": [
    {
      "inputs": [],
      "stateMutability": "nonpayable",
      "type": "constructor"
    },
    {
      "inputs": [
        {
          "internalType": "string",
          "name": "name",
          "type": "string"
        },
        {
          "internalType": "string",
          "name": "message",
          "type": "string"
        }
      ],
      "name": "buy",
      "outputs": [],
      "stateMutability": "payable",
      "type": "function",
      "payable": true
    },
    {
      "inputs": [],
      "name": "getMemos",
      "outputs": [
        {
          "components": [
            {
              "internalType": "string",
              "name": "name",
              "type": "string"
            },
            {
              "internalType": "string",
              "name": "message",
              "type": "string"
            },
            {
              "internalType": "uint256",
              "name": "timestamp",
              "type": "uint256"
            },
            {
              "internalType": "address",
              "name": "from",
              "type": "address"
            }
          ],
          "internalType": "struct Cafe.Memo[]",
          "name": "",
          "type": "tuple[]"
        }
      ],
      "stateMutability": "view",
      "type": "function",
      "constant": true
    }
  ],
  "bytecode": "0x608060405234801561001057600080fd5b5033600160006101000a81548173ffffffffffffffffffffffffffffffffffffffff021916908373ffffffffffffffffffffffffffffffffffffffff160217905550610988806100616000396000f3fe6080604052600436106100295760003560e01c8063865c51721461002e578063c63e529b14610059575b600080fd5b34801561003a57600080fd5b50610043610075565b60405161005091906106db565b60405180910390f35b610073600480360381019061006e9190610502565b610258565b005b60606000805480602002602001604051908101604052809291908181526020016000905b8282101561024f57838290600052602060002090600402016040518060800160405290816000820180546100cc90610857565b80601f01602080910402602001604051908101604052809291908181526020018280546100f890610857565b80156101455780601f1061011a57610100808354040283529160200191610145565b820191906000526020600020905b81548152906001019060200180831161012857829003601f168201915b5050505050815260200160018201805461015e90610857565b80601f016020809104026020016040519081016040528092919081815260200182805461018a90610857565b80156101d75780601f106101ac576101008083540402835291602001916101d7565b820191906000526020600020905b8154815290600101906020018083116101ba57829003601f168201915b50505050508152602001600282015481526020016003820160009054906101000a900473ffffffffffffffffffffffffffffffffffffffff1673ffffffffffffffffffffffffffffffffffffffff1673ffffffffffffffffffffffffffffffffffffffff168152505081526020019060010190610099565b50505050905090565b6000341161029b576040517f08c379a0000000000000000000000000000000000000000000000000000000008152600401610292906106fd565b60405180910390fd5b600160009054906101000a900473ffffffffffffffffffffffffffffffffffffffff1673ffffffffffffffffffffffffffffffffffffffff166108fc349081150290604051600060405180830381858888f19350505050158015610303573d6000803e3d6000fd5b50600060405180608001604052808481526020018381526020014281526020013373ffffffffffffffffffffffffffffffffffffffff16815250908060018154018082558091505060019003906000526020600020906004020160009091909190915060008201518160000190805190602001906103829291906103f7565b50602082015181600101908051906020019061039f9291906103f7565b506040820151816002015560608201518160030160006101000a81548173ffffffffffffffffffffffffffffffffffffffff021916908373ffffffffffffffffffffffffffffffffffffffff16021790555050505050565b82805461040390610857565b90600052602060002090601f016020900481019282610425576000855561046c565b82601f1061043e57805160ff191683800117855561046c565b8280016001018555821561046c579182015b8281111561046b578251825591602001919060010190610450565b5b509050610479919061047d565b5090565b5b8082111561049657600081600090555060010161047e565b5090565b60006104ad6104a884610742565b61071d565b9050828152602081018484840111156104c557600080fd5b6104d0848285610815565b509392505050565b600082601f8301126104e957600080fd5b81356104f984826020860161049a565b91505092915050565b6000806040838503121561051557600080fd5b600083013567ffffffffffffffff81111561052f57600080fd5b61053b858286016104d8565b925050602083013567ffffffffffffffff81111561055857600080fd5b610564858286016104d8565b9150509250929050565b600061057a8383610662565b905092915050565b61058b816107d9565b82525050565b600061059c82610783565b6105a681856107a6565b9350836020820285016105b885610773565b8060005b858110156105f457848403895281516105d5858261056e565b94506105e083610799565b925060208a019950506001810190506105bc565b50829750879550505050505092915050565b60006106118261078e565b61061b81856107b7565b935061062b818560208601610824565b61063481610918565b840191505092915050565b600061064c6013836107c8565b915061065782610929565b602082019050919050565b6000608083016000830151848203600086015261067f8282610606565b915050602083015184820360208601526106998282610606565b91505060408301516106ae60408601826106cc565b5060608301516106c16060860182610582565b508091505092915050565b6106d58161080b565b82525050565b600060208201905081810360008301526106f58184610591565b905092915050565b600060208201905081810360008301526107168161063f565b9050919050565b6000610727610738565b90506107338282610889565b919050565b6000604051905090565b600067ffffffffffffffff82111561075d5761075c6108e9565b5b61076682610918565b9050602081019050919050565b6000819050602082019050919050565b600081519050919050565b600081519050919050565b6000602082019050919050565b600082825260208201905092915050565b600082825260208201905092915050565b600082825260208201905092915050565b60006107e4826107eb565b9050919050565b600073ffffffffffffffffffffffffffffffffffffffff82169050919050565b6000819050919050565b82818337600083830152505050565b60005b83811015610842578082015181840152602081019050610827565b83811115610851576000848401525b50505050565b6000600282049050600182168061086f57607f821691505b60208210811415610883576108826108ba565b5b50919050565b61089282610918565b810181811067ffffffffffffffff821117156108b1576108b06108e9565b5b80604052505050565b7f4e487b7100000000000000000000000000000000000000000000000000000000600052602260045260246000fd5b7f4e487b7100000000000000000000000000000000000000000000000000000000600052604160045260246000fd5b6000601f19601f8301169050919050565b7f506179206d6f7265207468616e2030204554480000000000000000000000000060008201525056fea2646970667358221220452c225ec9d219b01b89bd8e7a9c19fc0a53c22de962d100130cf48678e4d76264736f6c63430008010033",
  "immutableReferences": {},
  "source": "// SPDX-License-Identifier: MIT\r\npragma solidity >=0.4.22 <0.9.0;\r\ncontract Cafe{\r\n    struct Memo{\r\n        string name;\r\n        string message;\r\n        uint timestamp;\r\n        address from;\r\n\r\n    }\r\n    Memo[] memos;\r\n    address payable owner;\r\n    constructor(){\r\n        owner= payable(msg.sender);\r\n    }\r\n    function buy(string memory name,string memory message) public payable{\r\n        require(msg.value>0,\"Pay more than 0 ETH\");\r\n        owner.transfer(msg.value);\r\n        memos.push(Memo(name,message,block.timestamp,msg.sender));\r\n\r\n\r\n\r\n\r\n    }\r\n    function getMemos() public view returns(Memo[] memory){\r\n        return memos;\r\n    }\r\n}",
  "sourcePath": "C:\\Users\\adith\\OneDrive\\Documents\\GitHub\\Cafe-Dapp\\contracts\\cafe.sol",
  "compiler": {
    "name": "solc",
    "version": "0.8.1+commit.df193b15.Emscripten.clang"
  },
  "schemaVersion": "3.4.15",
  "updatedAt": "2023-08-21T15:46:36.848Z",
  "networkType": "ethereum",
  "devdoc": {
    "kind": "dev",
    "methods": {},
    "version": 1
  },
  "userdoc": {
    "kind": "user",
    "methods": {},
    "version": 1
  }
}