{
  "contractName": "Cafe",
  "abi": [
    {
      "inputs": [],
      "stateMutability": "nonpayable",
      "type": "constructor"
    },
    {
      "inputs": [
        {
          "internalType": "string",
          "name": "name",
          "type": "string"
        },
        {
          "internalType": "string",
          "name": "message",
          "type": "string"
        }
      ],
      "name": "buy",
      "outputs": [],
      "stateMutability": "payable",
      "type": "function"
    },
    {
      "inputs": [],
      "name": "getMemos",
      "outputs": [
        {
          "components": [
            {
              "internalType": "string",
              "name": "name",
              "type": "string"
            },
            {
              "internalType": "string",
              "name": "message",
              "type": "string"
            },
            {
              "internalType": "uint256",
              "name": "timestamp",
              "type": "uint256"
            },
            {
              "internalType": "address",
              "name": "from",
              "type": "address"
            }
          ],
          "internalType": "struct Cafe.Memo[]",
          "name": "",
          "type": "tuple[]"
        }
      ],
      "stateMutability": "view",
      "type": "function"
    }
  ],
  "bytecode": "0x608060405234801561000f575f80fd5b503360015f6101000a81548173ffffffffffffffffffffffffffffffffffffffff021916908373ffffffffffffffffffffffffffffffffffffffff160217905550610b1d8061005d5f395ff3fe608060405260043610610028575f3560e01c8063865c51721461002c578063c63e529b14610056575b5f80fd5b348015610037575f80fd5b50610040610072565b60405161004d91906105d3565b60405180910390f35b610070600480360381019061006b9190610730565b61024b565b005b60605f805480602002602001604051908101604052809291908181526020015f905b82821015610242578382905f5260205f2090600402016040518060800160405290815f820180546100c4906107d3565b80601f01602080910402602001604051908101604052809291908181526020018280546100f0906107d3565b801561013b5780601f106101125761010080835404028352916020019161013b565b820191905f5260205f20905b81548152906001019060200180831161011e57829003601f168201915b50505050508152602001600182018054610154906107d3565b80601f0160208091040260200160405190810160405280929190818152602001828054610180906107d3565b80156101cb5780601f106101a2576101008083540402835291602001916101cb565b820191905f5260205f20905b8154815290600101906020018083116101ae57829003601f168201915b5050505050815260200160028201548152602001600382015f9054906101000a900473ffffffffffffffffffffffffffffffffffffffff1673ffffffffffffffffffffffffffffffffffffffff1673ffffffffffffffffffffffffffffffffffffffff168152505081526020019060010190610094565b50505050905090565b5f341161028d576040517f08c379a00000000000000000000000000000000000000000000000000000000081526004016102849061085d565b60405180910390fd5b60015f9054906101000a900473ffffffffffffffffffffffffffffffffffffffff1673ffffffffffffffffffffffffffffffffffffffff166108fc3490811502906040515f60405180830381858888f193505050501580156102f1573d5f803e3d5ffd5b505f60405180608001604052808481526020018381526020014281526020013373ffffffffffffffffffffffffffffffffffffffff16815250908060018154018082558091505060019003905f5260205f2090600402015f909190919091505f820151815f0190816103639190610a18565b5060208201518160010190816103799190610a18565b50604082015181600201556060820151816003015f6101000a81548173ffffffffffffffffffffffffffffffffffffffff021916908373ffffffffffffffffffffffffffffffffffffffff16021790555050505050565b5f81519050919050565b5f82825260208201905092915050565b5f819050602082019050919050565b5f81519050919050565b5f82825260208201905092915050565b5f5b83811015610430578082015181840152602081019050610415565b5f8484015250505050565b5f601f19601f8301169050919050565b5f610455826103f9565b61045f8185610403565b935061046f818560208601610413565b6104788161043b565b840191505092915050565b5f819050919050565b61049581610483565b82525050565b5f73ffffffffffffffffffffffffffffffffffffffff82169050919050565b5f6104c48261049b565b9050919050565b6104d4816104ba565b82525050565b5f608083015f8301518482035f8601526104f4828261044b565b9150506020830151848203602086015261050e828261044b565b9150506040830151610523604086018261048c565b50606083015161053660608601826104cb565b508091505092915050565b5f61054c83836104da565b905092915050565b5f602082019050919050565b5f61056a826103d0565b61057481856103da565b935083602082028501610586856103ea565b805f5b858110156105c157848403895281516105a28582610541565b94506105ad83610554565b925060208a01995050600181019050610589565b50829750879550505050505092915050565b5f6020820190508181035f8301526105eb8184610560565b905092915050565b5f604051905090565b5f80fd5b5f80fd5b5f80fd5b5f80fd5b7f4e487b71000000000000000000000000000000000000000000000000000000005f52604160045260245ffd5b6106428261043b565b810181811067ffffffffffffffff821117156106615761066061060c565b5b80604052505050565b5f6106736105f3565b905061067f8282610639565b919050565b5f67ffffffffffffffff82111561069e5761069d61060c565b5b6106a78261043b565b9050602081019050919050565b828183375f83830152505050565b5f6106d46106cf84610684565b61066a565b9050828152602081018484840111156106f0576106ef610608565b5b6106fb8482856106b4565b509392505050565b5f82601f83011261071757610716610604565b5b81356107278482602086016106c2565b91505092915050565b5f8060408385031215610746576107456105fc565b5b5f83013567ffffffffffffffff81111561076357610762610600565b5b61076f85828601610703565b925050602083013567ffffffffffffffff8111156107905761078f610600565b5b61079c85828601610703565b9150509250929050565b7f4e487b71000000000000000000000000000000000000000000000000000000005f52602260045260245ffd5b5f60028204905060018216806107ea57607f821691505b6020821081036107fd576107fc6107a6565b5b50919050565b5f82825260208201905092915050565b7f506179206d6f7265207468616e203020455448000000000000000000000000005f82015250565b5f610847601383610803565b915061085282610813565b602082019050919050565b5f6020820190508181035f8301526108748161083b565b9050919050565b5f819050815f5260205f209050919050565b5f6020601f8301049050919050565b5f82821b905092915050565b5f600883026108d77fffffffffffffffffffffffffffffffffffffffffffffffffffffffffffffffff8261089c565b6108e1868361089c565b95508019841693508086168417925050509392505050565b5f819050919050565b5f61091c61091761091284610483565b6108f9565b610483565b9050919050565b5f819050919050565b61093583610902565b61094961094182610923565b8484546108a8565b825550505050565b5f90565b61095d610951565b61096881848461092c565b505050565b5b8181101561098b576109805f82610955565b60018101905061096e565b5050565b601f8211156109d0576109a18161087b565b6109aa8461088d565b810160208510156109b9578190505b6109cd6109c58561088d565b83018261096d565b50505b505050565b5f82821c905092915050565b5f6109f05f19846008026109d5565b1980831691505092915050565b5f610a0883836109e1565b9150826002028217905092915050565b610a21826103f9565b67ffffffffffffffff811115610a3a57610a3961060c565b5b610a4482546107d3565b610a4f82828561098f565b5f60209050601f831160018114610a80575f8415610a6e578287015190505b610a7885826109fd565b865550610adf565b601f198416610a8e8661087b565b5f5b82811015610ab557848901518255600182019150602085019450602081019050610a90565b86831015610ad25784890151610ace601f8916826109e1565b8355505b6001600288020188555050505b50505050505056fea2646970667358221220b995051b8ce74dd91820c5ab7208e180bef0821c8722e5ff165e41563dbf9dae64736f6c63430008150033",
  "immutableReferences": {},
  "source": "// SPDX-License-Identifier: MIT\r\npragma solidity >=0.8.2 <0.9.0;\r\ncontract Cafe{\r\n    struct Memo{\r\n        string name;\r\n        string message;\r\n        uint timestamp;\r\n        address from;\r\n\r\n    }\r\n    Memo[] memos;\r\n    address payable owner;\r\n    constructor(){\r\n        owner= payable(msg.sender);\r\n    }\r\n    function buy(string memory name,string memory message) public payable{\r\n        require(msg.value>0,\"Pay more than 0 ETH\");\r\n        owner.transfer(msg.value);\r\n        memos.push(Memo(name,message,block.timestamp,msg.sender));\r\n\r\n\r\n\r\n\r\n    }\r\n    function getMemos() public view returns(Memo[] memory){\r\n        return memos;\r\n    }\r\n}",
  "sourcePath": "C:\\Users\\adith\\OneDrive\\Documents\\GitHub\\Cafe-Dapp\\contracts\\cafe.sol",
  "compiler": {
    "name": "solc",
    "version": "0.8.21+commit.d9974bed.Emscripten.clang"
  },
  "schemaVersion": "3.4.15",
  "updatedAt": "2023-08-21T10:24:50.260Z",
  "devdoc": {
    "kind": "dev",
    "methods": {},
    "version": 1
  },
  "userdoc": {
    "kind": "user",
    "methods": {},
    "version": 1
  }
}